:020000040800F2
:100000008035002059020008D54A00080137000851
:1000100071460008510A0008D95800080000000085
:100020000000000000000000000000009D0100082A
:100030007D0A000800000000F10100086951000875
:1000400073020008730200087302000873020008BC
:1000500073020008730200087302000873020008AC
:1000600073020008B90A000873020008730200084E
:10007000730200087302000873020008730200088C
:10008000730200087302000873020008CD580008CC
:1000900073020008550A0008610A0008730200088C
:1000A000730200087D520008730200087302000802
:1000B0007302000873020008730200081137000879
:1000C000053700087302000873020008154D000888
:1000D000274D0008B958000873020008CB580008E3
:1000E0007302000873020008730200080000000099
:1000F0000000000000000000000000000000000000
:100100000000000000000000000000007302000872
:100110007302000873020008730200080000000068
:1001200073020008730200087302000873020008DB
:100130007302000800000000000000000000000042
:1001400073020008730200080000000000000000B5
:10015000000000000000000000000000000000009F
:100160000000000000000000730200087302000895
:100170007302000800000000000000000000000002
:100180000000000073020008DFF80CD000F0E4FB70
:10019000004800473D630008803500202B4B19685C
:1001A0000868B0E8F04F80F30988BFF36F8F4FF015
:1001B000000080F3118870470000000006480068C6
:1001C000006880F3088862B661B6BFF34F8FBFF353
:1001D0006F8F00DF00BF00BF08ED00E0DFF80C000C
:1001E000016841F470010160704700BF88ED00E0D4
:1001F000EFF30980BFF36F8F144B1A681EF0100FD6
:1002000008BF20ED108A20E9F04F106008B44FF0CD
:10021000500080F31188BFF34F8FBFF36F8F06F04C
:1002200091FD4FF0000080F3118808BC1968086840
:10023000B0E8F04F1EF0100F08BFB0EC108A80F34A
:100240000988BFF36F8F704700BF00BF1400002004
:10025000EFF30580704700000648804706480047D6
:10026000FEE7FEE7FEE7FEE7FEE7FEE7FEE7FEE766
:10027000FEE7FEE71552000889010008202A04DB8A
:10028000203A21FA02F00021704721FA02F3D0400F
:10029000C2F12002914008431946704740EA010329
:1002A0009B0703D009E008C9121F08C0042AFAD22C
:1002B00003E011F8013B00F8013B521EF9D27047F0
:1002C000D2B201E000F8012B491EFBD27047002298
:1002D000F6E710B513460A4604461946FFF7F0FF45
:1002E000204610BD10B5044604E00B7800F8013B31
:1002F00003B1491C521EF8D2204610BDCAB2401E9E
:1003000010F8011F8A4202D00029F9D1002070475D
:100310002DE9FE4F81EA030404F0004421F000417E
:1003200000944FF0000B23F0004350EA01045ED02C
:1003300052EA03045BD0C3F30A54C1F30A552C44B8
:10034000A4F2F3340194A0FB0254C1F3130141F46D
:100350008011C3F3130343F4801301FB024400FB39
:10036000034E840A970A44EA815447EA8357A4FB60
:10037000076802958D0A05FB07854FEA932C04FB5D
:100380000C542705029D4FEA065847EA1637B5EB8D
:1003900008056EEB070C870E920E47EA811742EABA
:1003A0008312A7FB0201B6EB0B0164EB00042B0DDB
:1003B00043EA0C335E1844EB1C50DA465146E7FB27
:1003C0000201C5F313044FEA0B3343EA14534FEA17
:1003D0000432019C43EA0603A4F10C040294009C3D
:1003E000CDE900B400F0D3F803B0BDE8F08F0020F1
:1003F0000146F9E70EB5C10F80EAE0700844CA076C
:10040000002140F233438DE80E000A460B4600F00F
:10041000BEF803B000BD00F0004230F000400AD04A
:10042000C10D01F56071C0F3160042EA0151C20826
:1004300040071143704700200146704701F0004318
:1004400030B421F0004150EA010206D00A0DA2F5B5
:100450006072C1F31301002A02DC30BC0020704737
:10046000440F44EAC104C100E01830BC00EBC250A4
:1004700000F047B830B50B46014600202022012489
:1004800009E021FA02F59D4205D303FA02F5491B62
:1004900004FA02F52844151EA2F10102F1DC30BD78
:1004A0002DE9F05F0546002092469B4688460646A9
:1004B000814640241BE02846414647462246FFF736
:1004C000DDFE53465A46C01A914110D311461846D4
:1004D000224600F053FA2D1A67EB01084F462246D8
:1004E0000120002100F04AFA17EB00094E41201EBE
:1004F000A4F10104DFDC484631462A464346BDE804
:10050000F09F0029A8BF7047401C490008BF20F099
:100510000100704710B4B0FA80FC00FA0CF050EA09
:10052000010404BF10BC704749B1CCF1200421FA8A
:1005300004F411FA0CF118BF012121430843A3EB85
:100540000C01CB1D4FEA00614FEA102042BF002092
:1005500010BC704700EBC35010440029A4BF10BC6E
:100560007047401C490008BF20F0010010BC7047D4
:1005700010B5141E73F1000408DA401C41F10001AB
:1005800092185B411A4301D120F0010010BD2DE902
:10059000F04D92469B4611B1B1FA81F202E0B0FAF9
:1005A00080F22032904600F0E9F904460F4640EA16
:1005B0000A0041EA0B0153465A46084313D011463C
:1005C00053EA010019D0C8F140025046FFF756FE29
:1005D00005460E4650465946424600F0CFF90843BC
:1005E00005D0012004E020463946BDE8F08D00200A
:1005F000054346EAE0762C4337430A986305E40A4C
:10060000A0EB08000022FD0A44EA47540A3002D554
:1006100000200146E9E7010510196941DDE90845B7
:1006200000196941BDE8F04DA2E72DE9FE4F804673
:1006300081EA0300C00F0C46009021F0004123F036
:100640000045B8EB0200A94105D24046214690463C
:100650001C460B46024623F00040104347D0270DAE
:10066000C7F30A00C3F30A510290401A01904028D0
:100670006BDAC3F3130040F4801B0098924620B15C
:100680000023D2EB030A63EB0B0B01985946C0F130
:100690004002504600F072F906460D465046594653
:1006A000019A00F07AF910EB08006141002487EA12
:1006B000115284EAE7731A4340D0009A62B3019A58
:1006C000012A4FEA075215DC001B61EB02014FF0D3
:1006D000004202EA0752CDE90042001C41F58011B8
:1006E00032462B46FFF753FF03B0BDE8F08F40467C
:1006F0002146F9E7001B61EB0201001C41F5801364
:1007000000185B412018A2F5001747EB030140EAEF
:10071000D570B6196D4111E06D084FEA360645EA0D
:10072000C0754FEA0752001B61EB0201001C41F546
:10073000801149084FEA30000019514132462B46DA
:1007400003B0BDE8F04FFFF713BF0098012240004F
:100750000023D0EB020263EBE073009821464FEADE
:10076000E074B8EB000061EB0401E9E783F00043BB
:100770005BE781F0004158E72DE9F04D81EA030481
:1007800004F0004B21F0004514464FF0000A23F01E
:10079000004150EA050220D054EA01021DD0C5F301
:1007A0000A570246C5F31303C1F31300C1F30A56F7
:1007B00040F4801543F48013A7EB0608101BD646BF
:1007C00008F2FD3873EB050002D308F1010801E0DF
:1007D00092185B41B8F1000F03DA00200146BDE832
:1007E000F08D00204FF48011064684460EE0171B62
:1007F00073EB050705D3121B63EB050306434CEAB5
:10080000010C49084FEA300092185B4150EA010799
:10081000EDD152EA030012D082EA040083EA050116
:10082000084305D0101BAB4106D20122002306E08D
:1008300000224FF0004302E06FF0010253101AEB68
:1008400006004CEB085110EB0A0041EB0B01BDE830
:10085000F04DFFF78DBE2DE9F04D00231A461B1A0F
:100860008A4103DB00200146BDE8F08DC1F30A5246
:10087000C1F3130141F480154FF0000BD10702D1F1
:1008800000186D41521E0027044640F2FF11384601
:1008900001EB620A3E468046024600204FF480117A
:1008A000FFF7ECFCC2197141BB1846EB0100B4EB39
:1008B000030C75EB000C04D3E41A65EB0005174636
:1008C0000E46241908F101006D4180463428E3DD0D
:1008D000F91946EB0600091BA84103D24FF0FF327D
:1008E000134601E0002213461BEB070046EB0A51BA
:1008F000BDE8F04DFFF73CBEC1F30A52C1F313014E
:1009000040F2FF3341F480119A4202DA002001469E
:10091000704740F233439A42A2F2334202DC524221
:10092000FFF7ACBC00F02AB830B5041E71F100042A
:1009300004DB4FF00044404264EB0101141E73F1EC
:10094000000405DB1C464FF00043524263EB0403F6
:10095000994208BF904230BD064C074D06E0E06862
:1009600040F0010394E8070098471034AC42F6D3F6
:10097000FFF70EFCD0770008F0770008202A04DB90
:10098000203A00FA02F1002070479140C2F12003A2
:1009900020FA03F3194390407047202A06DBCB1757
:1009A000203A41FA02F043EAE07306E041FA02F32A
:1009B000D040C2F12002914008431946704770B5FB
:1009C0008C1810F8015B15F0070301D110F8013BFA
:1009D0002A1106D110F8012B03E010F8016B01F881
:1009E000016B5B1EF9D12B0705D40023521E0DD4D9
:1009F00001F8013BFAE710F8013BCB1A921C03E027
:100A000013F8015B01F8015B521EF9D5A142D8D35E
:100A1000002070BD014601EB41020549002001EBB9
:100A200082010A7A497A8A4200D101207047000087
:100A3000980000200021022805D2044900EB400064
:100A400001EB8000017A0846704700009800002002
:100A5000FEE70000014800F034B800003401002037
:100A6000014800F02EB800003401002000222021AF
:100A7000014800F063BD000000040048704700001A
:100A8000014610B50020032912D20A4801EB4101AA
:100A900000EB81040122A07900EB400105481838E1
:100AA00000EB81000189406800F048FD0120A07141
:100AB00010BD0000E8000020082000F0D5BB704702
:100AC00070472DE9F05F0546006800244669D0F8BC
:100AD00004908768D0F80CB0D0F810A0D0F8188037
:100AE000F10748D0F90714D001218160B80703D578
:100AF000284600F093FA0CE0780702D54FF4006422
:100B000007E0380702D54FF4805402E0284600F091
:100B100084FAF80516D529684FF480708860B80506
:100B200003D5284600F07CFA0CE0780502D544F4A1
:100B3000005407E0380502D544F4804402E028461A
:100B400000F06DFAF80316D529684FF480308860FC
:100B5000B80303D5284600F065FA0CE0780302D507
:100B600044F4004407E0380302D544F4803402E042
:100B7000284600F056FA300707D55FEACB6004D567
:100B80002968102044F40074C86070074FF008070B
:100B900007D55FEA0B7004D52868C760284600F0C7
:100BA00037FAB00706D52868C068800702D0284603
:100BB00000F02FFA700607D55FEACA6004D52968ED
:100BC000102044F480640861B00607D55FEA0A701B
:100BD00004D528680761284600F01CFAF00606D5FF
:100BE00028680069800702D0284600F014FAB00394
:100BF00008D55FEAC96005D52968102048602846F5
:100C000000F00AFAF00307D55FEA097004D52868F6
:100C10004760284600F007FA300446D55FEA49707D
:100C200040D5F00504D55FEAC87001D044F0010456
:100C3000B00504D55FEA887001D544F00204700560
:100C400004D55FEA487001D544F00404300529D585
:100C500018F0700F26D008F07000402815D006DC80
:100C6000102809D020280AD0302816D10AE05028B0
:100C70000ED0602811D10EE044F008040DE044F0DD
:100C800010040AE044F0200407E044F0400404E0CB
:100C900044F0800401E044F480742868816921F004
:100CA00070018161296804204860002C05D0686AC1
:100CB000204368622846FFF703FFBDE8F09F00006D
:100CC00070B504007ED09D492068884203D0E92198
:100CD0009BA005F01BFB207E28B1012803D0EA2150
:100CE00097A005F013FB607E28B1012803D0EB210B
:100CF00093A005F00BFBA07E28B1012803D0EC21C6
:100D00008FA005F003FBE07E28B1012803D0ED2180
:100D10008BA005F0FBFA207F28B1012803D0EE213B
:100D200087A005F0F3FA607F28B1012803D0EF21F6
:100D300083A005F0EBFAA06860B1B0F1804F09D054
:100D4000B0F1004F06D0B0F1404F03D0F0217CA0AD
:100D500005F0DCFAE06860B1B0F1807F09D0B0F155
:100D6000007F06D0B0F1407F03D0F12174A005F0E0
:100D7000CDFA206938B3B0F5803F30D0B0F5003FF0
:100D80002DD0B0F5403F2AD0B0F5802F27D0B0F558
:100D9000A02F24D0B0F5C02F21D0B0F5E02F1ED069
:100DA000B0F5002F1BD0B0F5102F18D0B0F5202FC4
:100DB00015D0B0F5302F12D0B0F5402F0FD0B0F5D0
:100DC000502F01E033E00AE009D0B0F5602F06D0E3
:100DD000B0F5702F03D0F22159A005F097FA6069A1
:100DE000C0B1B0F5801F15D0B0F5001F12D0B0F51E
:100DF000401F0FD0B0F5800F0CD0B0F5A00F09D078
:100E0000B0F5C00F06D0B0F5E00F03D0F3214CA031
:100E100005F07CFA6068401EB0F5806F03D3F421C2
:100E200047A005F073FA94F8200010B104E0012007
:100E300070BD204600F0A0F82068016821F0020192
:100E4000016000F0AFFB0546052604E000F0AAFBB8
:100E5000401B0A2811D8206840688007F6D4206813
:100E6000016841F00101016000F09CFB05460BE0C8
:100E700000F098FB401B0A2806D9606A40F4003055
:100E8000606284F82060D2E720684068C007EFD035
:100E9000207E0128206801683DD021F0800101609A
:100EA000607E01282068016838D021F0400101608F
:100EB000A07E01282068016833D021F02001016064
:100EC000E07E0128206801682ED041F01001016009
:100ED000207F01282068016829D021F008010160E5
:100EE000607F01282068016824D021F0040101609E
:100EF000D4E902010843D4E90412114308436168AC
:100F0000491E08432168C86100206062012084F8FE
:100F10002000002070BD41F08001C0E741F0400199
:100F2000C5E741F02001CAE721F01001CFE741F009
:100F30000801D4E741F00401D9E700000064004053
:100F40002E2E2F447269766572732F53544D3332AF
:100F5000463378785F48414C5F4472697665722FFA
:100F60005372632F73746D3332663378785F6861C0
:100F70006C5F63616E2E630010B586B00446142169
:100F80006846FFF7A4F91F492068884237D11E48F8
:100F9000C16941F00071C161C16901F00071059141
:100FA000416941F4802141614069694600F4802033
:100FB00005904FF4407000900220019000200290B4
:100FC0000320039009200490104800F059F90022F2
:100FD0000521132000F0B2FD132000F07FFD002258
:100FE0000521152000F0AAFD152000F077FD002254
:100FF0000521162000F0A2FD162000F06FFD06B0BE
:1010000010BD0000006400400010024000040048D1
:101010007047704770477047704770477047704718
:1010200070477047704770472DE9F04115000E4634
:1010300007464FF01F0409D0082D07D0102D05D00A
:10104000182D03D06E2113A005F060F95FF00101A7
:1010500001FA04F0304201D1641EF9D285B1082DA5
:1010600009D0102D04D0182D0AD1072C05D207E085
:10107000082C02D204E0102C02D30120BDE8F0813C
:10108000386846613868816821F018012943816019
:101090000020F3E72E2E2F447269766572732F536A
:1010A000544D3332463378785F48414C5F4472691F
:1010B0007665722F5372632F73746D333266337893
:1010C000785F68616C5F6372635F65782E630000B0
:1010D00010B5040020D037492068884203D0802111
:1010E00035A005F013F9607F20B900202077204655
:1010F00000F080F802206077207978B1012805D0CF
:101100008F212DA005F002F9207938B1D4E902121F
:101110002046FFF789FF48B1012010BD21683448FF
:1011200048612068816821F0180181606079002899
:101130003CD0012806D0A1211FA005F0E7F8607976
:10114000002833D0206921680861606948B12028EF
:1011500007D0402805D0602803D0AD2116A005F0A7
:10116000D5F820688168626921F0600111438160CF
:10117000A06928B1802803D0B1210FA005F0C6F8DE
:1011800020688168A26921F0800111438160206A92
:10119000012807D0022805D0032803D0B62106A0D5
:1011A00005F0B4F801206077002010BD4FF0FF304B
:1011B000C9E70000003002402E2E2F447269766588
:1011C00072732F53544D3332463378785F48414C15
:1011D0005F4472697665722F5372632F73746D3337
:1011E00032663378785F68616C5F6372632E630088
:1011F000B71DC10408B500680649884208D10648F1
:10120000416941F040014161406900F040000090B7
:1012100008BD0000003002400010024010B590F8F8
:1012200021100024022903D004218163012418E045
:1012300001680A6822F00E020A6001680A6822F05A
:1012400001020A6090F84020C36B012101FA02F20A
:101250005A6080F82110002180F82010416B01B104
:101260008847204610BD7047044910B50A680242FD
:1012700002D00860FFF7F7FF10BD00001404014022
:101280002DE9F84F00274FF0904BDFF83CA20D46B8
:101290000446584511D054450FD08C4884420CD098
:1012A0008B48844209D08B48844206D08A488442C5
:1012B00003D0C32189A005F029F828680104090C8E
:1012C00001D0000C03D0C42184A005F01FF8686889
:1012D000F8B101281DD011281BD0022819D01228DE
:1012E00017D08D49884214D08C49884211D08C493E
:1012F00088420ED08B4988420BD08B49884208D057
:101300008A49884205D0032803D0C52173A004F080
:10131000FDFFA868002807D00128FCD00228FAD0D9
:10132000C6216EA004F0F2FFC7E00120B840009093
:1013300006407DD06868022801D012282BD15C4578
:1013400011D054450FD0614884420CD0604884428B
:1013500009D06048844206D05F48844203D0D5213A
:101360005EA004F0D3FF28690C2807D90E2805D009
:101370000F2803D0D62159A004F0C8FFF80804EBC9
:101380008002116A7807C30E0F20984081432869B4
:1013900098400843106221687800032202FA00F89E
:1013A0002A79814602F0030221EA080102FA09F2D1
:1013B0000A4322606868012805D0022803D011285A
:1013C00001D012281AD1E86838B1012805D00328C5
:1013D00003D0EA2141A004F099FFA068E96820EA5F
:1013E000080001FA09F10143A16061680098814396
:1013F0002879C0F30010B84008436060E068A9682D
:1014000020EA080001FA09F10143E1606868C000C0
:1014100052D54748816941F001018161806927F017
:10142000030100F00100009042480A18916800E0B2
:1014300042E0B807000F0F23834099435C4501D178
:10144000002313E0544501D101230FE01F4B9C42C0
:1014500001D102230AE01E4B9C4201D1032305E087
:101460001C4B9C4201D1042300E0052383400B4325
:101470009360314908686A68B043D20300D53043AD
:1014800008602D49091D08686A68B043920300D5B9
:10149000304308602849083108686A68B043D202BE
:1014A00000D53043086024490C3108686A68B043AD
:1014B000920200D5304308607F1C2E6836FA07F090
:1014C0007FF433AFBDE8F88F0004004800080048FF
:1014D000000C004800100048001400482E2E2F4435
:1014E0007269766572732F53544D33324633787870
:1014F0005F48414C5F4472697665722F5372632F67
:1015000073746D3332663378785F68616C5F6770CF
:10151000696F2E6300000000000011100000211010
:1015200000003110000012100000221000003210E4
:1015300000100240000001400004014070B5154653
:101540000C00064604D14FF4D87107A004F0DEFE6B
:1015500045B1012D04D040F2B11103A004F0D6FE34
:10156000B46170BDB46270BD2E2E2F447269766571
:1015700072732F53544D3332463378785F48414C61
:101580005F4472697665722F5372632F73746D3383
:1015900032663378785F68616C5F6770696F2E635D
:1015A000000000000148806870470000040000202F
:1015B00070B50D46044600681D49884206D01D4995
:1015C000884203D074211CA004F0A0FE35B1B5F50B
:1015D000805F03D0752118A004F098FE94F84100B4
:1015E000202823D194F8400001281FD0012084F83E
:1015F0004000242084F841002068016821F00101A6
:1016000001602068016821F4805101602068016850
:10161000294301602068016841F001010160202038
:1016200084F84100002084F8400070BD022070BDA5
:1016300000540040005800402E2E2F4472697665F9
:1016400072732F53544D3332463378785F48414C90
:101650005F4472697665722F5372632F73746D33B2
:1016600032663378785F68616C5F6932635F657892
:101670002E63000070B50D46044600681B49884281
:1016800006D01B49884203D0A2211AA004F03EFED6
:101690000F2D03D9A32117A004F038FE94F84100C0
:1016A000202821D194F8400001281DD0012084F881
:1016B0004000242084F841002068016821F00101E5
:1016C00001602068016821F4706141EA0521016030
:1016D0002068016841F001010160202084F8410088
:1016E000002084F8400070BD022070BD005400400E
:1016F000005800402E2E2F447269766572732F5366
:10170000544D3332463378785F48414C5F447269B8
:101710007665722F5372632F73746D33326633782C
:10172000785F68616C5F6932635F65782E63000083
:101730007047704730B403689A691968D40508D5B2
:101740000C0606D5446C44F0010444644FF48074E4
:10175000DC61530509D50B0607D5436C43F008033C
:10176000436404684FF48063E361920509D5090678
:1017700007D5416C41F00201416402684FF40071E9
:10178000D161416C11F00B0F03D0416C30BC02F001
:101790005FB830BC7047026891691268436B002BD8
:1017A00000D018477047704770B504005ED05849A4
:1017B0002068884207D05749884204D040F2A311DC
:1017C00055A004F0A3FDA068B0F5806F04D34FF4DA
:1017D000D27151A004F09AFDE068012806D00228D9
:1017E00004D040F2A5114CA004F090FD206938B15E
:1017F000B0F5004F04D04FF4D37147A004F086FD3C
:101800006069FF2804D940F2A71143A004F07EFDCF
:10181000A06990B1012810D002280ED003280CD066
:1018200004280AD0052808D0062806D0072804D0A6
:101830004FF4D47138A004F069FDE06938B1B0F517
:10184000002F04D040F2A91133A004F05FFD206AFC
:1018500038B1B0F5003F04D04FF4D5712EA004F09C
:1018600055FD94F84100002510B106E0012070BD3F
:1018700084F84050204600F06FF8242084F841009E
:101880002068016821F0010101606068216820F092
:10189000706008612068816821F400418160E0681F
:1018A0000128A06807D040F4044021688860E068FF
:1018B000022803D006E040F40040F6E721684FF428
:1018C0000060486020684168214A114341602068F7
:1018D000C16821F40041C160D4E904010843A16951
:1018E00040EA01202168C860D4E907010843216863
:1018F00008602068016841F00101016065642020F2
:1019000084F84100256384F84250002070BD000037
:1019100000540040005800402E2E2F447269766516
:1019200072732F53544D3332463378785F48414CAD
:101930005F4472697665722F5372632F73746D33CF
:1019400032663378785F68616C5F6932632E63005A
:1019500000800002704700002DE9F04186B0044687
:1019600014216846FEF7B3FC2149206888423BD128
:10197000204C606940F400306061606900F4003020
:101980000590606940F4802060616069122500F470
:1019900080200590C813012603274FF004088DE826
:1019A000E1016946A806FFF76BFC80208DE8E101A4
:1019B00069461148FFF764FCE06940F40010E061FB
:1019C000E069002200F40010059005211F2000F0BE
:1019D000B5F81F2000F082F800220521202000F039
:1019E000ADF8202000F07AF806B0BDE8F0810000E4
:1019F0000054004000100240000400487047704747
:101A00000248816802781144816070470400002018
:101A1000074810B5016841F010010160032000F093
:101A2000DDF8002000F006F800F03EF8002010BDC0
:101A30000020024000B5014687B00022192000F0C6
:101A40007DF8192000F04AF81348816941F40061DB
:101A50008161806905A900F400600690684600F085
:101A60009FFC00F0FFFC0D490D4AB0FBF1F10D4861
:101A7000491E0260416040F2E7320021C0E90321C3
:101A8000816001F01FFB10B1012007B000BD0548C7
:101A900001F09EFBF9E700000010024040420F00F9
:101AA000002C01403C0700200B4882B0816941F0C6
:101AB00001018161816901F001010091C16941F079
:101AC0008051C161C069002200F0805000900F2158
:101AD000901E02B000F032B80010024010B50400B1
:101AE00003D5E82106A004F011FC04F01F01012039
:101AF00088406109890001F1E021C1F8000110BDB1
:101B00002E2E2F447269766572732F53544D3332E3
:101B1000463378785F48414C5F4472697665722F2E
:101B20005372632F73746D3332663378785F6861F4
:101B30006C5F636F727465782E63000070B5154634
:101B40000C460646102A03D3D42114A004F0DEFB71
:101B5000102C03D3D52111A004F0D8FB1E48006837
:101B6000C0F30223C3F107022046042A00D904224D
:101B7000191D072901D2002300E0DB1E012404FA0D
:101B800002F1491E014099409C40641E2C402143B3
:101B90003046BDE8704002F09EBF00002E2E2F445C
:101BA0007269766572732F53544D333246337878A9
:101BB0005F48414C5F4472697665722F5372632FA0
:101BC00073746D3332663378785F68616C5F636F0E
:101BD000727465782E6300000CED00E010B50446C9
:101BE00007280BD0062C09D0052C07D0042C05D0D3
:101BF000032C03D0BC2108A004F088FB154904F095
:101C0000070208684FF6FF03184040EA0220124A14
:101C10001043086010BD00002E2E2F4472697665B7
:101C200072732F53544D3332463378785F48414CAA
:101C30005F4472697665722F5372632F73746D33CC
:101C400032663378785F68616C5F636F7274657851
:101C50002E6300000CED00E00000FA0570B50400F2
:101C60004FF000060CD02B492068884203D0972102
:101C700029A004F04BFB94F87103002510B106E095
:101C8000012070BD84F87053204600F061F80320F5
:101C900084F8710301220CE0C6EBC60004EB80005F
:101CA00080F8292000F8286F761CC570C560056192
:101CB00045616068B042EFD8002010E0C0EBC00181
:101CC00004EB810181F8CD5181F8CC0181F8CF512D
:101CD000C1F8D851C1F8DC51401CC1F8E05161682D
:101CE0008142EBD82068A0F840202068A0F840503E
:101CF0002068A0F844502068A0F8505021684FF4A4
:101D00003F40A1F8400084F8245084F8712300205B
:101D100070BD0000005C00402E2E2F447269766575
:101D200072732F53544D3332463378785F48414CA9
:101D30005F4472697665722F5372632F73746D33CB
:101D400032663378785F68616C5F7063642E63001D
:101D500010B586B0044614216846FEF7B8FA134958
:101D60002068884220D1124C606940F400306061E4
:101D70006069694600F4003005904FF4C05000904F
:101D80000220019000200290032003900E20049076
:101D90004FF09040FFF774FAE06940F40000E06112
:101DA000E06900F40000059006B010BD005C004042
:101DB000001002402DE9F84F04460068D4498842DB
:101DC00003D97D21D3A004F0A1FA2068E04DC0031F
:101DD0004FF4803B4FF4807773D5606858B1B842B8
:101DE00009D0B0F5007F06D0B0F5407F03D0832145
:101DF000C8A004F08BFAE8690026C00008D4E8699E
:101E000040F08050E861E869012600F080500090C1
:101E1000D0480168C90513D40168814641F4807136
:101E20000160FFF7BFFB804606E000BFFFF7BAFB8B
:101E3000A0EB0800642835D8D9F80000C005F5D516
:101E4000286A10F4407053D0A18801F44071814297
:101E50004ED0286A9BFAABF2B2FA82F24FEA820CB9
:101E6000BD4A4FF00109944420F44070CCF800942E
:101E70009BFAABF1B1FA81F102EB81010023C1F8C9
:101E800000342862C00733D0FFF78CFB80464FF048
:101E9000020A0AE0FFF786FBA0EB080141F2883056
:101EA000814202D90320BDE8F88F9AFAAAF1B1FA6B
:101EB00081F141F040025046B9EB521F02D12A682D
:101EC0000CE020E090FAA0F2B2FA82F242F0400276
:101ED000B0EB521F01D12A6A00E06A6A9AFAAAF0AE
:101EE000B0FA80F000F01F0009FA00F10A42D1D0E8
:101EF000286A616820F44070084328621EB1E869CE
:101F000020F08050E8612078C00711D0A06848B167
:101F1000012807D0022805D0032803D0CA217DA0BC
:101F200004F0F4F9286BA16820F00300084328634B
:101F30002078800713D5E06858B1584509D0B0F52E
:101F4000003F06D0B0F5403F03D0D52171A004F08A
:101F5000DDF9286BE16820F44030084328632078DD
:101F6000400714D5206960B1B0F5802F09D0B0F5D5
:101F7000002F06D0B0F5402F03D0E12165A004F07A
:101F8000C5F9286B216920F4402008432863207894
:101F900080060DD5E06928B1102803D0EC215DA0A2
:101FA00004F0B4F9286BE16920F0100008432863BD
:101FB00020684FF4800880030DD5206B404504D085
:101FC00018B1FA2153A004F0A1F96868216B20F43C
:101FD000800008436860207840060ED5206A30B142
:101FE000202804D04FF487714AA004F08FF9286BA1
:101FF000216A20F02000084328632078000715D5C7
:10200000606968B1B0F5801F0AD0B0F5001F07D035
:10201000B0F5401F04D040F22F113EA004F076F935
:10202000286B616920F440100843286320784FF43E
:102030000006C00613D5A06958B1404509D0B0428A
:1020400007D0B0F5400F04D040F2391131A004F0B0
:102050005DF9286BA16920F44000084328632088BB
:1020600080050ED5A06A30B1B04204D040F24911CB
:1020700028A004F04BF96868A16A20F40000084326
:102080006860207800062FD5606A38B3B84225D042
:10209000B0F5887F22D0B0F5907F1FD0B0F5987F43
:1020A0001CD0B0F5A07F19D0B0F5A87F16D0B0F540
:1020B000B07F13D0B0F5B87F10D0B0F5C07F0DD091
:1020C000B0F5C87F0AD0B0F5D07F07D0B0F5D87F83
:1020D00004D040F269110FA004F018F9E86A616AAF
:1020E00020F4F8700843E8622088C0040ED5E06A46
:1020F00030B1B84204D04FF4CD7106A004F006F917
:10210000286BE16A20F48070084328630020CAE647
:10211000FF1203002E2E2F447269766572732F53BF
:10212000544D3332463378785F48414C5F4472698E
:102130007665722F5372632F73746D333266337802
:10214000785F68616C5F7263635F65782E6300001F
:102150000010024000700040000042422DE9F047AC
:102160000F4605007DD02868C1070AD1810708D431
:10217000410706D4000704D440F2BA2176A004F047
:10218000C5F847B1012F06D0022F04D040F2BB2181
:1021900071A004F0BBF87E4E306800F00700B84232
:1021A00009D2306820F0070038433060306800F012
:1021B0000700B8427FD12878764C80071CD5A868E4
:1021C000A0B1802812D0902810D0A0280ED0B0281E
:1021D0000CD0C0280AD0D02808D0E02806D0F0289B
:1021E00004D040F2D2215CA004F090F86068A968A5
:1021F00020F0F000084360602878C0074CD0686881
:102200004FF0010868B1012816D0022830D040F202
:10221000D92151A004F07AF8686801280CD002286E
:1022200026D0022191FAA1F0B0FA80F040F020000F
:10223000400904D0206803E04FF40031F2E7606AFF
:1022400091FAA1F1B1FA81F101F01F0208FA02F14D
:10225000084230D06068696820F00300084360607D
:1022600000E028E0FFF79EF9804641F288390CE053
:102270004FF00071D6E700BFFFF794F9A0EB08011B
:10228000494502D90320BDE8F0876068696800F01D
:102290000C00B0EB810FEFD1306800F00700B842BE
:1022A0000BD9306820F0070038433060306800F008
:1022B0000700B84201D00120E5E728784FF4806696
:1022C00040074FF4A0674FF4C0684FF4E06914D59D
:1022D000E86860B1B0420AD0B84208D0404506D0A4
:1022E000484504D040F215311BA004F00FF8606897
:1022F000E96820F4E060084360602878000715D59D
:10230000286960B1B0420AD0B84208D0404506D032
:10231000484504D04FF447710FA003F0F7FF606801
:10232000296920F4605040EAC100606000F0B2F812
:102330006168F02292FAA2F201F0F001B2FA82F2A0
:10234000D140154A515CC840144908600020FFF78D
:1023500071FB002097E700002E2E2F4472697665EE
:1023600072732F53544D3332463378785F48414C63
:102370005F4472697665722F5372632F73746D3385
:1023800032663378785F68616C5F7263632E6300D6
:102390000020024000100240447700081000002096
:1023A00070B50D46040004D140F27B4111A003F04A
:1023B000ADFF25B940F27C410EA003F0A7FF0F202E
:1023C00020601A48416801F003016160416801F032
:1023D000F001A160416801F4E061E16040684FF400
:1023E000E06101EAD00020611148006800F00700B8
:1023F000286070BD2E2E2F447269766572732F533C
:10240000544D3332463378785F48414C5F447269AB
:102410007665722F5372632F73746D33326633781F
:10242000785F68616C5F7263632E63000010024026
:102430000020024008480949006849684FF4E062FA
:1024400092FAA2F201F4E061B2FA82F2D140044AB7
:10245000515CC8407047000010000020001002408E
:102460005477000808480949006849684FF46052E9
:1024700092FAA2F201F46051B2FA82F2D140044A17
:10248000515CC8407047000010000020001002405E
:1024900054770008154B10B55A68154802F00C0126
:1024A000042902D0082901D0401010BD4FF4701447
:1024B00094FAA4F402F47011B4FA84F4E1400D4CDF
:1024C000DB6A615C0F2494FAA4F403F00F03B4FAFE
:1024D00084F4E340074C1034D203E35C03D5B0FB33
:1024E000F3F0484310BD0448484310BD00100240BB
:1024F0000024F4002477000800093D002DE9F84F7E
:10250000040072D0DFF800844FF4803B4FF0000AE3
:102510000227FE4D2068012660B1C1070DD1810759
:1025200074D4010773D4400772D440F25711F8A055
:1025300003F0ECFE2078C00732D0606848B15845FF
:1025400007D0B0F5A02F04D040F25D11F0A003F049
:10255000DDFE68684FF40039C0F38100012807D020
:102560006868C0F3810002281BD16868C00318D5D1
:1025700099FAA9F1B1FA81F141F02001490901D09C
:10258000296800E0696A99FAA9F0B0FA80F000F0D1
:102590001F0006FA00F0014267D060680028B0D042
:1025A00063E06068584503D1286840F480300AE051
:1025B00010B1B0F5A02F13D0286820F48030286027
:1025C000286820F480202860E86AA16820F00F00C5
:1025D0000843E862606840B3FEF7E4FF00900BE058
:1025E000286840F480202860DEE7EEE0FEF7DAFF9E
:1025F0000099401A642871D899FAA9F0B0FA80F0CD
:1026000040F02000400904D0286803E030E0C5E035
:102610003CE1686A99FAA9F1B1FA81F101F01F0170
:1026200006FA01F10842E1D01FE0FEF7BBFF00907F
:1026300006E000BFFEF7B6FF0099401A6428DAD81A
:1026400099FAA9F0B0FA80F040F02000400901D0DA
:10265000286800E0686A99FAA9F1B1FA81F101F0FD
:102660001F0106FA01F10842E4D1207880076AD5FB
:10267000206930B1012804D040F29511A4A003F0E4
:1026800045FE60691F2804D94FF4CB71A0A003F068
:102690003DFE686810F00C0F07D06868C0F3810039
:1026A00002281CD16868C00319D497FAA7F0B0FAC1
:1026B00080F040F02000400901D0286800E0686AFE
:1026C00097FAA7F1B1FA81F101F01F0106FA01F1C1
:1026D00008422CD02069012877D128E0F4E1206954
:1026E00090B396FAA6F0B0FA80F048F82060FEF7B2
:1026F00059FF814606E000BFFEF754FFA0EB09003A
:1027000002289CD897FAA7F0B0FA80F040F0200099
:10271000400901D0286800E0686A97FAA7F1B1FA89
:1027200081F101F01F0106FA01F10842E4D02868A6
:10273000F82292FAA2F26169B2FA82F220F0F8006D
:1027400091400843286026E0FFE796FAA6F1B1FA27
:1027500081F148F821A0FEF725FF814606E000BF81
:10276000FEF720FFA0EB09000228CAD897FAA7F0CD
:10277000B0FA80F040F02000400901D0286800E065
:10278000686A97FAA7F1B1FA81F101F01F0106FA20
:1027900001F10842E4D12078000774D5A06988B31C
:1027A000012806D04FF4EB7159A003F0AFFDA069EA
:1027B00040B396FAA6F0B0FA80F008EB8000C0F8BB
:1027C0008064FEF7EFFE814606E0C1E1FEF7EAFE17
:1027D000A0EB0900022894D897FAA7F0B0FA80F08D
:1027E00040F06000B6EB501F01D128680CE097FA6A
:1027F000A7F0B0FA80F040F06000B7EB501F02D1B4
:10280000286A01E00BE0686A97FAA7F1B1FA81F152
:1028100001F01F0106FA01F21042D7D033E096FA18
:10282000A6F1B1FA81F108EB8101C1F880A4FEF7AD
:10283000B9FE814606E000BFFEF7B4FEA0EB09003A
:10284000022892D897FAA7F0B0FA80F040F0600022
:10285000B6EB501F01D128680BE097FAA7F0B0FA49
:1028600080F040F06000B7EB501F01D1286A00E013
:10287000686A97FAA7F1B1FA81F101F01F0106FA2F
:1028800001F21042D8D1207840076ED5E0684FF0B1
:10289000000940B1012806D0052804D040F20221E9
:1028A0001BA003F033FDE869C00009D4E86940F0DB
:1028B0008050E861E8694FF0010900F08050009015
:1028C00021480168C90511D4016841F48071016093
:1028D000FEF768FE009005E0FEF764FE0099401ADE
:1028E0006428AED818480068C005F5D5E06801280E
:1028F0002CD008B1052833D0286A20F001002862C6
:10290000286A20F0040024E0000042420010024047
:102910002E2E2F447269766572732F53544D3332C5
:10292000463378785F48414C5F4472697665722F10
:102930005372632F73746D3332663378785F6861D6
:102940006C5F7263632E630000700040286A40F081
:1029500001002862E06898B3FEF724FE00900DE0C5
:10296000286A40F004002862F0E75FE0FEF71AFEF4
:102970000099411A41F288308142B2D897FAA7F003
:10298000B0FA80F040F04000B6EB501F01D128684B
:102990000BE097FAA7F0B0FA80F040F04000B7EBF8
:1029A000501F01D1286A00E0686A97FAA7F1B1FACE
:1029B00081F101F01F0106FA01F21042D6D02EE09B
:1029C000FFE7FEF7EFFD009008E000BFFEF7EAFD2D
:1029D0000099411A41F28830814275D897FAA7F0E0
:1029E000B0FA80F040F04000B6EB501F01D12868EB
:1029F0000BE097FAA7F0B0FA80F040F04000B7EB98
:102A0000501F01D1286A00E0686A97FAA7F1B1FA6D
:102A100081F101F01F0106FA01F21042D6D1B9F19D
:102A2000000F03D0E86920F08050E861E0690028D9
:102A300049D0012809D0022807D040F24621AFF240
:102A4000301003F063FCE069E8B36868C0F381000C
:102A500002287DD0E0694FF080794FF0007702289E
:102A600009D099FAA9F0B0FA80F048F820A0FEF752
:102A700099FD0446A0E0206A38B1584505D040F2DF
:102A80004F21AFF2741003F041FC606A90B3B0F5CF
:102A9000802F2FD0B0F5002F2CD0B0F5402F29D0AB
:102AA000B0F5801F26D0B0F5A01F23D0B0F5C01F11
:102AB00020D0B0F5E01F1DD0B0F5001F1AD0B0F542
:102AC000101F17D001E08CE073E0B0F5201F11D08B
:102AD000B0F5301F0ED0B0F5401F0BD0B0F5501F31
:102AE00008D0B0F5601F05D04FF41471AFF2E010BC
:102AF00003F00CFC514699FAA9F0B0FA80F0CA46EE
:102B0000C14648F82010FEF74DFD804606E000BFA4
:102B1000FEF748FDA0EB080002284AD897FAA7F074
:102B2000B0FA80F040F02000400901D0286800E0B1
:102B3000686A97FAA7F1B1FA81F101F01F0106FA6C
:102B400001F10842E4D1D4E908100843696800E0C3
:102B500049E021F47411084368609AFAAAF0B0FAC7
:102B600080F049F82060FEF71DFD044605E000BF37
:102B7000FEF718FD001B02281BD897FAA7F0B0FA41
:102B800080F040F02000400901D0286800E0686A29
:102B900097FAA7F1B1FA81F101F01F0106FA01F1EC
:102BA0000842E5D01DE000BFFEF7FCFC001B022838
:102BB00002D90320BDE8F88F97FAA7F0B0FA80F0A9
:102BC00040F02000400901D0286800E0686A97FAC8
:102BD000A7F1B1FA81F101F01F0106FA01F10842F3
:102BE000E2D10020E6E70120E4E7000070B5040030
:102BF00043D048492068884203D0FA2146A003F018
:102C000085FB6068402804D018B1FB2142A003F086
:102C10007DFBA0687F2803D9FC213FA003F076FB51
:102C2000E068B0F5004F03D3FD213BA003F06EFB3D
:102C3000206960B1B0F5001F09D0B0F5800F06D053
:102C4000B0F5C00F03D0FE2133A003F05FFB606935
:102C500030B1B0F5801F03D0FF212FA003F056FB49
:102C6000A06938B1B0F5802F04D04FF480712AA04C
:102C700003F04CFB607F10B106E0012070BD002026
:102C80002077204600F066F8022060772168CA208D
:102C90004862216853204862204601F06BFFFF25FF
:102CA000042618BB20688168294A11408160216888
:102CB000886862681043D4E904231A43104388608B
:102CC0002168E068086120680169228941EA0241BF
:102CD00001612068C16821F08001C16020688068BE
:102CE000800607D4204600F049F818B120684562F4
:102CF0006677C2E72068016C21F4802101642068B6
:102D0000016CA2691143016420684562012060776B
:102D1000002070BD002800402E2E2F447269766579
:102D200072732F53544D3332463378785F48414C99
:102D30005F4472697665722F5372632F73746D33BB
:102D400032663378785F68616C5F7274632E6300FB
:102D5000BFFF8FFF0068074988420AD10120C103E5
:102D600091FAA1F1044AB1FA81F102EB8101C1F8B3
:102D700000047047002800400000424270B504463D
:102D80000068C16821F0A001C160FEF70BFC054698
:102D90004FF47A7607E000BFFEF704FC401BB04218
:102DA00001D9032070BD2068C0688006F4D50020DA
:102DB00070BD00002DE9F04104007DD07D49206800
:102DC00088420AD07C49884207D07C49884204D096
:102DD00040F21B117AA003F099FA606838B1B0F59F
:102DE000827F04D04FF48E7175A003F08FFAA06833
:102DF0004FF4806648B1B04207D0B0F5004F04D020
:102E000040F21D116EA003F081FAE0684FF4706784
:102E10004FF4E065B84226D0B0F5606F23D0B0F52E
:102E2000506F20D0B0F5406F1DD0B0F5306F1AD084
:102E3000B0F5206F17D0B0F5106F14D0B0F5006F5B
:102E400011D0A8420FD0B0F5C06F0CD0B0F5A06F74
:102E500009D0B04207D0B0F5407F04D04FF48F7155
:102E600057A003F053FAA069B0F5007F08D038B13D
:102E7000B0F5802F04D040F21F1151A003F046FAA4
:102E8000606B082805D020B14FF490714CA003F07E
:102E90003DFAE069A0B1082812D0102810D01828F7
:102EA0000ED020280CD028280AD0302808D0382866
:102EB00006D040F2211100E017E041A003F026FA0D
:102EC000206A30B1802804D04FF491713CA003F007
:102ED0001DFA606A60B110281CD040F2231138A09E
:102EE00003F014FA606A18B114E00120BDE8F08123
:102EF000206930B1022804D04FF4937130A003F060
:102F000005FA606930B1012804D040F227112CA0E5
:102F100003F0FCF90026A66294F85D0020B984F85D
:102F20005C60204600F068F8022284F85D2020688A
:102F3000016821F040010160E068A84203D9002146
:102F4000B84202D104E04FF48051A84200D0A662FA
:102F5000276B012327B9A84201D9226300E023632C
:102F6000D4E901021043D4E904252A431043228BFB
:102F700002F400721043E2691043226A1043A26A0D
:102F8000104322681060626B606AA56910430427D1
:102F9000E26807EA15452A43104308432168486060
:102FA0002068C16921F40061C161266684F85D3042
:102FB00000209BE70030014000380040003C00400A
:102FC0002E2E2F447269766572732F53544D33320F
:102FD000463378785F48414C5F4472697665722F5A
:102FE0005372632F73746D3332663378785F686120
:102FF0006C5F7370692E630070B586B0044614214F
:103000006846FDF764F9294E256800212848022208
:1030100003230524B54221D1856945F48055856196
:10302000856905F480550595456945F40035456188
:10303000406902AD00F40030059085E81A00E020F8
:10304000CDE9000269464FF09040FEF719F90022E1
:1030500005212320FEF772FD232022E0154EB54204
:1030600021D1C56945F48045C561C56905F4804530
:103070000595456945F480254561406902AD00F438
:103080008020059085E81A00B000CDE9000269466D
:103090000948FEF7F5F8002205212420FEF74EFD31
:1030A0002420FEF71BFD06B070BD0000003001407B
:1030B000001002400038004000040048704770478C
:1030C0007047000010B5040042D02B4920688842A8
:1030D00018D0B0F1804F15D02849884212D0284925
:1030E00088420FD0274988420CD02749884209D00E
:1030F0002649884206D02649884203D0D52125A0FA
:1031000003F004F9A06858B1102809D0202807D08E
:10311000402805D0602803D0D6211EA003F0F6F881
:10312000206948B1B0F5807F06D0B0F5007F03D0AC
:10313000D72118A003F0EAF8A06928B1802803D0AD
:10314000D82114A003F0E2F894F83D0010B107E094
:10315000012010BD002084F83C00204600F036F825
:10316000022084F83D00211D206802F08DF8012026
:1031700084F83D00002010BD002C014000040040F8
:1031800000080040001000400040014000440140A1
:10319000004801402E2E2F447269766572732F53BA
:1031A000544D3332463378785F48414C5F447269FE
:1031B0007665722F5372632F73746D333266337872
:1031C000785F68616C5F74696D2E63007047000002
:1031D00010B5044601681448814219D0B1F1804FFE
:1031E00016D01248814213D01148814210D01148A4
:1031F00081420DD0104881420AD01048814207D048
:103200000F48814204D040F25F110EA003F07EF817
:103210002068C16841F00101C1602068016841F087
:1032200001010160002010BD002C0140000400409D
:1032300000080040001000400040014000440140F0
:10324000004801402E2E2F447269766572732F5309
:10325000544D3332463378785F48414C5F4472694D
:103260007665722F5372632F73746D3332663378C1
:10327000785F68616C5F74696D2E6300704770B52C
:103280000446006801694FF00005C943890715D459
:10329000C168C943890711D4E91E01610120207763
:1032A000206880698007204602D0FFF7E7FF04E02E
:1032B00000F0A7F8204600F0A5F8257720680169FE
:1032C000C943490717D4C168C943490713D46FF0EC
:1032D00004010161022020772068806910F4407F9A
:1032E000204602D0FFF7CAFF04E000F08AF820462B
:1032F00000F088F8257720680169C943090716D4CA
:10330000C168C943090712D46FF0080101610420A4
:1033100020772068C0698007204602D0FFF7AEFF03
:1033200004E000F06EF8204600F06CF82577206885
:103330000169C943C90617D4C168C943C90613D472
:103340006FF010010161082020772068C06910F437
:10335000407F204602D0FFF791FF04E000F051F8D3
:10336000204600F04FF8257720680169C943C90756
:1033700008D1C168C943C90704D1891E016120462B
:1033800000F042F820680169C943090609D4C16800
:10339000C943090605D46FF0800101612046FFF79B
:1033A0008EFE20680169C943C90509D4C168C943B3
:1033B000090605D46FF4807101612046FFF77EFE97
:1033C00020680169C943490609D4C168C94349064F
:1033D00005D46FF040010161204600F01FF820681D
:1033E0000169C94389060BD4C168C943890607D45A
:1033F0006FF0200101612046BDE87040FFF760BE1C
:1034000070BD70477047000000680349884201D1D1
:10341000FEF7F6BA70470000002C0140704700002C
:1034200010B504000FD0A06928490028284A294B6C
:1034300020680AD0884219D0904217D0984215D0FF
:1034400040F231110FE0012010BD88420ED09042B1
:103450000CD098420AD02049884207D01F498842A0
:1034600004D04FF49B711EA002F050FF94F8690045
:1034700028B9002084F86800204600F04FF8242086
:1034800084F869002068016821F00101016020468C
:1034900002F076F80128D7D0606A10B1204601F01A
:1034A0003FFF2068416821F49041416020688168B5
:1034B00021F02A0181602068016841F0010101606A
:1034C0002046BDE8104002F02DB800000038014051
:1034D0000044004000480040004C004000500040C4
:1034E0002E2E2F447269766572732F53544D3332EA
:1034F000463378785F48414C5F4472697665722F35
:103500005372632F73746D3332663378785F6861FA
:103510006C5F756172742E630000000070B586B038
:10352000044614216846FCF7D2FE294E2568002186
:103530002848022203230724B54221D1856945F496
:1035400080458561856905F480450595456945F4A3
:1035500000354561406902AD00F40030059085E812
:103560001A005802CDE9000269464FF09040FDF77D
:1035700087FE002205212520FEF7E0FA252023E022
:10358000154EB54222D1C56945F48025C561C5698E
:1035900005F480250595456945F480254561406918
:1035A00002AD00F48020059085E81A004FF44060D9
:1035B000CDE9000269460948FDF762FE00220521B7
:1035C0002720FEF7BBFA2720FEF788FA06B070BD69
:1035D000003801400010024000480040000400484C
:1035E00003280FD2084A00EB400352F823008168F9
:1035F00011F0010F06D0C068C1B202EB8300007960
:1036000001F0D4BB70470000E8000020F8B50328A3
:103610001DD2134C00EB400554F825008068C0F320
:103620004000002813D004EB8506707901F022F8E1
:1036300070B100208DF800007079694601F0F8FA49
:10364000002804D054F825009DF800100173F8BD3F
:1036500054F82500416821F080014160F8BD000068
:10366000E800002070B5032820D2114900EB400289
:1036700051F82200C369C3F34013002B16D0808C8D
:1036800001EB8205C4B26879FDF7D4F9C6B2687956
:10369000214602F023F9002808D00D2C06D16979C3
:1036A00028793246BDE8704001F09ABB70BD000039
:1036B0007400002070B5032815D2104C00EB4005B3
:1036C00054F82500C069C0F3C01000280BD004EBEB
:1036D0008506B079FDF79EF930B154F825000168F0
:1036E00021F08001016070BDB07901F061FA00281D
:1036F000F9D054F82510088570BD00007400002032
:10370000FEE700000148FEF715B800008001002028
:103710000148FEF740B800008001002010B5406A63
:1037200001684A6842F400424A60826B002151639A
:10373000C26B516390F84110602902D0FEF733F854
:1037400010BD202180F84110FDF7F2FF10BD10B52B
:103750000022CC074FF0280306D090F841404222C7
:1037600033EA040400D0F2228C0707D590F84140D8
:1037700042F04402A34301D042F0B0024B0701D50E
:1037800042F0B80211238B4301D142F09002122380
:103790008B4301D142F060020068016891430160EF
:1037A000002010BD01688A69D243920701D400222B
:1037B0008A6200688169C943C90703D0816941F001
:1037C0000101816170472DE9F041044690F8410004
:1037D0002821814320684FF000054FF0080304D0F2
:1037E000C36184F84050BDE8F0818169C1F30047AE
:1037F0008169FE2202EA11468168C1F30902C168AB
:10380000D4F80CC001F0FE01BCF1020F13D14FF04F
:10381000060C06F006060CEAD21C66450AD1A16C1D
:10382000491CA164A16C0229DDD1A564C36184F89F
:10383000405007E00E4604212046FFF788FF84F839
:103840004050324639462046FDF773FFCBE7000073
:1038500070B50025044680F842503248E062658524
:10386000606C0843606494F841002026282827D023
:1038700094F84100292823D094F841002A281FD029
:1038800007212046FFF763FF94F84100602801D02C
:1038900084F8416025636563206801684A04224911
:1038A000026818D522F480420260A06B416384F85C
:1038B0004050A06BFDF7B2FC002829D0A06B1AE0A5
:1038C00003212046FFF743FF282084F841002563A9
:1038D00016486063E0E7120411D5026822F4004242
:1038E0000260E06B416384F84050E06BFDF796FCAA
:1038F00000280DD0E06B416BBDE87040084794F89C
:103900004100602805D084F840502046FDF74BFF69
:1039100070BD84F8416084F840502046FDF708FFF0
:1039200070BD00000000FFFF1D370008D13A0008FD
:1039300070B504461448E06200252563202084F811
:10394000410084F842506563480710D52068416AF9
:10395000606A421C62620170208D40B1401E208569
:10396000608D401E6085606C40F00400606407213B
:103970002046FFF7ECFE21681020C86184F8405013
:103980002046FDF7E7FF70BD0000FFFF70B504465D
:10399000006820250E46C56121680820C8610721FE
:1039A0002046FFF7D4FE2068416841F400414160A1
:1039B000206841682F4A114041602046FFF7F2FE1F
:1039C00020680168490402D40168090407D594F805
:1039D0004110212930D0E16B096849686185618D0A
:1039E00019B1616C41F00401616471070FD5416A3E
:1039F000606A421C62620170208D40B1401E2085C9
:103A0000608D401E6085606C40F0040060640020A2
:103A1000206384F842006063616C79B1616C204678
:103A2000FFF716FF94F84100282813D131462046AD
:103A3000BDE87040FFF77CBFA16BCDE7E26A0E499D
:103A40008A4208D0E16284F8415084F84000204660
:103A5000FDF780FF70BD94F8411084F84150222991
:103A600084F84000204602D0FDF7C9FF70BDFDF785
:103A7000C5FF70BD00E800FE0000FFFF70B5002527
:103A8000044680F8425090F841102820292911D08E
:103A900094F841102A290CD184F841002220206397
:103AA00002212046FFF753FE84F840502046FDF7E0
:103AB000A5FF70BD84F8410021202063012120462C
:103AC000FFF745FE84F840502046FDF798FF70BD93
:103AD00070B5044690F8400015460E46012811D0F6
:103AE000012084F840003D49F0062ED5E8062CD58B
:103AF000628D102042B12168C861606C40F0040002
:103B000060645FE0022070BDE36A4FF00072934290
:103B100002D0E36A934203D194F84120282A09D0C5
:103B2000E26A8A4203D094F84110292907D021681B
:103B3000C86147E031462046FFF7FAFE42E02168BF
:103B4000C8612046FFF72EFE39E0700715D56807DB
:103B500013D5608D58B12068426A606A431C636265
:103B60000270208D401E2085608D401E6085608D16
:103B700040BBE06A884222D124E0300706D52807FE
:103B800004D531462046FFF71EFE1BE0B00719D5CD
:103B9000A80717D5608D60B1606A411C6162216819
:103BA00000788862608D401E6085208D401E2085D3
:103BB00008E0E06AB0F1807F01D0E06A10B92046E9
:103BC000FFF75CFFB00605D5A80603D531462046B1
:103BD000FFF7DCFE002084F8400070BD0000FFFF0E
:103BE00070B50D4D002400BF55F8340048B10BA24C
:103BF0002521144801F0B0FE641CE4B2042CF3D378
:103C000070BD05EBC40000224168102003F04AF9A2
:103C100045F83400F0E70000B00000202E2E5C4193
:103C200070706C69636174696F6E5C7372635C6DF4
:103C30006573736167655F71756575655F617069EF
:103C40002E6300005E77000870B50A4E002400BFA6
:103C500004EB440006EB8005E87928B1A86818B9A0
:103C6000012003F00DF9A860641CE4B2032CEFD32B
:103C700070BD0000E800002010B5104A002000BF11
:103C800000EB400102EB8103DB798BB152F821306C
:103C90001C6844F080041C6052F821301C6844F019
:103CA00020041C6052F821100B6843F001030B60E4
:103CB000401CC0B20328E3D310BD000074000020F4
:103CC00070B50A4E002400BF04EB440006EB8005EB
:103CD000E87928B1A86818B9012003F0D1F8A860E4
:103CE000641CE4B2032CEFD370BD0000740000200C
:103CF0000D4810B50B490160102141600021816021
:103D0000C16001614161017641768176C1760177BA
:103D10004177FCF7D5FF002803D0BDE81040FCF741
:103D2000CEBE10BD00640040340100200A4810B52A
:103D300008490160002101714171416181610121E6
:103D40000162FDF7C5F9002803D0BDE81040FCF77B
:103D5000B6BE10BD003002405C01002000B585B049
:103D6000FFF7AEFFFFF770FFFFF73AFF1422064997
:103D70006846FCF793FA0021684602F012FB0349FB
:103D8000086005B000BD00001077000800000020AA
:103D90002DE9F04786B014216846FCF798FA3848B8
:103DA000416941F480014161416901F4800105915B
:103DB000416941F400314161416901F400310591EB
:103DC000416941F480214161416901F480210591FB
:103DD000416941F40021416140694FF0904800F48D
:103DE00000200590002210214046FDF7A7FBDFF8D8
:103DF00094A041F23006002231465046FDF79EFB6A
:103E0000DFF884904FF48067002239464846FDF77A
:103E100095FB082000901D480024CDE90104694667
:103E20004046FDF72DFA102000900125CDE9015400
:103E3000694640460394FDF723FA0096CDE9015404
:103E4000694650460394FDF71BFA0097CDE90154EB
:103E5000694648460394FDF713FA4020CDE9000473
:103E6000694650460294FDF70BFA0022052109200D
:103E7000FDF764FE0920FDF731FE06B0BDE8F087CE
:103E80000010024000040048000800480000111023
:103E9000134810B511490160124941600021012207
:103EA000C0E90212016141618161C1610162FDF7F6
:103EB0007BFC08B1FCF703FE00210948FDF778FB05
:103EC00008B1FCF7FCFD00210548FDF7D3FB0028F5
:103ED00003D0BDE81040FCF7F2BD10BD0054004017
:103EE000800100200E0900200B4810B5094901602F
:103EF00000217F22C0E90112FF22C0E903214161B4
:103F00008161FEF773FE002803D0BDE81040FCF786
:103F1000D6BD10BD00280040CC010020124810B5CD
:103F2000104901604FF48271416000214FF4E0625A
:103F3000C0E902124FF400720161C0E905121022BB
:103F4000C0E9072107224162C0E90A120163082182
:103F50004163FEF72FFF002803D0BDE81040FCF7B7
:103F6000AEBD10BD00300140EC010020124810B57C
:103F7000104901604FF48271416000214FF440729A
:103F8000C0E902124FF400720161C0E90512C1617B
:103F9000016207224162C0E90A12016308214163FC
:103FA000FEF708FF002803D0BDE81040FCF787BDEE
:103FB00010BD000000380040500200200D4810B530
:103FC0000B4901604FF4E1314160002181600C2216
:103FD000C160C0E904128161C16101624162FFF701
:103FE0001FFA002803D0BDE81040FCF768BD10BDE3
:103FF00000380140B40200200D4810B50B490160A3
:104000004FF4E1314160002181600C22C160C0E9C0
:1040100004128161C16101624162FFF701FA002867
:1040200003D0BDE81040FCF74ABD10BD0048004079
:10403000240300200B4810B50949016008214160A4
:10404000022181600161002181610162FDF706FEAC
:10405000002803D0BDE81040FCF731BD10BD0000C2
:10406000005C00409403002010B5B5EEC03A2DED81
:10407000108BF0EE419AB0EE60AAF0EE40AAF1EE9D
:1040800010FA84B016D1F5EEC03AF1EE10FA11D163
:10409000B5EEC04AF1EE10FA0CD104B0B0EE691AD8
:1040A000F0EE4A0AB0EE6A0ABDEC108BBDE8104093
:1040B00000F0BEB9F5EEC01AD94CF1EE10FA09D1F4
:1040C000B5EEC02AF1EE10FA04D1F5EEC02AF1EEF9
:1040D00010FA7CD021EEA10A02EE020A02EEA20A38
:1040E00002F016F921EE80FA62EE00EA22EE80EA92
:1040F00023EE030A03EEA30A04EE040A02F008F911
:1041000023EE009A63EE808A24EE008A94ED020A80
:10411000D4ED020AF6EE00FA60EE201ACDED031A95
:1041200094ED020AD4ED030A94ED031AD4ED041AB7
:1041300020EE20DA94ED020AD4ED040A94ED052A6B
:1041400060EE20CA94ED020AD4ED050A20EE200AA2
:10415000D4ED030A20EE811AD4ED030A60EEA10A21
:10416000D4ED031A3FEEC11A21EE82CAD4ED041A2F
:1041700094ED042A30EEC04A30EE800A61EE82DA15
:10418000D4ED041A94ED052A20EE090A61EE82BAF4
:10419000D4ED051A94ED052A21EE82BA7FEEED1AD0
:1041A0003CEE2C2A71EE4B0A71EECB1ACDED021AC1
:1041B00061EE891A8DED014A8DED001A48EE841AE0
:1041C00048EE021AB0EE002A61EE821A00E0ADE07D
:1041D00008EEA00A7BEECD0A08EE200AF0EE000AF7
:1041E00060EE200A21EEA10A00EEA00A10EE100AED
:1041F000FCF711F941EC100B01F0D2FB51EC100B64
:10420000FCF71CF93CEE6C0A3BEE8D1A00EE900AAE
:104210009DED014A60EE091A48EE811A9DED001AE3
:1042200071EE6D3AB0EE001A48EE231A61EE812A63
:10423000DDED031A3DEE2B1A71EEEF1A31EE8B3ADB
:10424000DDED021A21EEA02A64EE201A3CEE8C4A23
:1042500002EE802A42EE811A64EE200A42EEA30AA0
:104260006EEE832A4EEE412A68EEA03A2FEE011A36
:1042700048EE613A0EEEC01A72EEA32A6EEE003AD4
:1042800029EE210A4FEE433A28EE023A08EEC20A1E
:1042900009EE603A31EE001A94ED010A73EE830ADA
:1042A000B5EEC00AF1EE10FA2CDD94ED010AD4ED62
:1042B000061A20EE222A9FED5B0A42EE001AC4ED98
:1042C000061AD4ED011A21EEA02AD4ED071A42EE07
:1042D000001AC4ED071AD4ED011A21EE812AD4ED9B
:1042E000081A42EE001AC4ED081A94ED060A7AEE96
:1042F00080AA94ED070A3AEE00AA94ED080A79EE36
:10430000809A07E09FED480A84ED060A84ED070ACB
:1043100084ED080A94ED000A40EE22AA94ED000A0A
:1043200000EE20AA94ED000A40EE019A9FED3F1A9C
:10433000D4ED032AD4ED041A2AEE810A6AEE010AAA
:1043400029EE811AD4ED053A22EEC03A94ED022A04
:1043500001EEE03A03EEC13AD4ED023A33EE233AED
:1043600084ED023A22EE003AD4ED053A01EE813AAC
:1043700003EEE03AD4ED033A33EE233A84ED033A08
:1043800022EE203AD4ED053A02EEC13A22EE011AAD
:1043900002EEA01A03EE803AD4ED043A01EEC01A00
:1043A00033EE233A84ED043A94ED050A31EE000A27
:1043B00084ED050A94ED020AD4ED020A94ED031A85
:1043C00020EE200AD4ED030A00EE810AD4ED040A9F
:1043D00094ED041A00EE810AD4ED050A94ED051A55
:1043E00000EE810A01F094FFD4ED020A60EE800A2B
:1043F000C4ED020AD4ED030A60EE800AC4ED030A9C
:10440000D4ED040A60EE800AC4ED040AD4ED050A76
:1044100020EE800A84ED050A04B0BDEC108B10BDBF
:104420000C0100200000003B000000000000803A6A
:10443000F5EEC01AB0EE413AF0EE603AB0EE404A06
:10444000F1EE10FA00B5864A09D1B5EEC02AF1EEB8
:1044500010FA04D1F5EEC02AF1EE10FA73D021EE75
:10446000A10A02EE020A02EEA20A01F051FF61EE79
:10447000804A22EE001A62EE800A92ED030AD2ED23
:10448000051A92ED052A92ED025A60EE212A92ED6C
:10449000020AD2ED041A40EE612A92ED020AD2ED30
:1044A000031A60EE211A92ED040A40EE021A92ED10
:1044B000022AB6EE000A12EE050A92ED052A92EDE6
:1044C000055A02EE050A21EE002A00EEE12A60EE0E
:1044D000A20A44EEC00A24EEA10A01EE620A92ED9D
:1044E000011AB5EEC01AF1EE10FA2DDD92ED011AA7
:1044F000D2ED061A61EE022A9FED5A1A42EE811A97
:10450000C2ED061AD2ED011A61EEA02AD2ED071A09
:1045100042EE811AC2ED071AD2ED011A61EE802A2D
:10452000D2ED081A42EE811AC2ED081A92ED061A6F
:1045300034EE014A92ED071A73EE813A92ED081AB1
:1045400033EE013A08E013E09FED471A82ED061AB8
:1045500082ED071A82ED081A92ED001A01EE024A66
:1045600092ED001A41EE203AD2ED000A00EE803AB8
:104570009FED3E1A92ED032AD2ED041A24EE010AB1
:1045800063EE810A23EE011AD2ED053A22EE403A9B
:10459000D2ED022A01EEE03A03EEC13AD2ED023A40
:1045A00033EE233A82ED023A22EE803AD2ED053A1A
:1045B00001EE813A03EEE03AD2ED033A33EE233ACC
:1045C00082ED033A22EEA03AD2ED053A02EE413AEC
:1045D00022EE811A02EE201A03EE803AD2ED043A5E
:1045E00001EEC01A33EE233A82ED043A92ED050A49
:1045F00031EE000A82ED050A92ED020AD2ED020ABE
:1046000092ED031A20EE200AD2ED030A00EE810A91
:10461000D2ED040A92ED041A00EE810AD2ED050AE9
:1046200092ED051A00EE810A01F072FED2ED020A47
:1046300060EE800AC2ED020AD2ED030A60EE800A43
:10464000C2ED030AD2ED040A60EE800AC2ED040A4C
:10465000D2ED050A20EE800A82ED050A00BD0000B9
:104660000C0100200000003B000000000000803A28
:10467000FEE7000001460020042907D2044A52F850
:104680003110002902D0084602F0AEB97047000090
:10469000B000002038B5002504468DF800502A46A9
:1046A0003B21684600F0FEFBD8B39DF800000022D5
:1046B000000220803C21684600F0F4FB88B320888B
:1046C0009DF800100022084420803D21684600F03B
:1046D000E9FB30B39DF800000022000260803E211B
:1046E000684600F0DFFBE0B160889DF80010002212
:1046F000084460803F21684600F0D4FB88B19DF8F3
:10470000000000220002A0804021684600F0CAFBA1
:1047100038B1A0889DF800100844A08085F0010001
:1047200038BDFFE7012502A1002000F0E5F9F5E71B
:104730004552524F523A20416363206461746120B4
:1047400072656164696E67206661696C65640D00FD
:1047500010B5002422461B21102000F065FC00B992
:10476000012400221C21102000F05EFC00B901246D
:1047700000223721102000F057FC00B9012400224C
:104780003821012000F050FC00B90124002223212F
:10479000104600F049FC00B9012400226A211046AD
:1047A00000F042FC00B9012400222421402000F046
:1047B0003BFC00B9012400222521482000F034FCF4
:1047C00000B9012400222621032000F02DFC00B9AD
:1047D000012400222721062000F026FC00B9012434
:1047E00084F0010010BD000070B505462DED028B70
:1047F0000C46B1F90000FBF7FDFD9FED348B53EC47
:10480000182BFBF785FDFBF719FE2860B4F90200B1
:10481000FBF7F0FD53EC182BFBF77AFDFBF70EFED0
:104820006860B4F90400FBF7E5FD53EC182BFBF7C7
:104830006FFDFBF703FEA860B4F90600FBF7DAFD95
:104840009FED248B53EC182BFBF762FDFBF7F6FD75
:10485000E860B4F90800FBF7CDFD53EC182BFBF72B
:1048600057FDFBF7EBFD2861B4F90A00FBF7C2FD29
:1048700053EC182BFBF74CFDFBF7E0FD6861B4F936
:104880000C00FBF7B7FD9FED158B53EC182BFBF7D6
:104890003FFDFBF7D3FDA861B4F90E00FBF7AAFDBD
:1048A00053EC182BFBF734FDFBF7C8FDE861B4F9B6
:1048B0001000FBF79FFD53EC182BFBF729FDFBF7CE
:1048C000BDFD2862BDEC028B70BD00000000000041
:1048D0000040CF3F391F83F331389F3FABAAAAAACC
:1048E000AAAAFA3F38B500248DF800402246752167
:1048F000684600F0D7FA38B19DF80000712805D05D
:1049000003A1002000F0F8F8204638BD0124FBE7A1
:104910004552524F523A204D505539323530206E63
:104920006F742064657465637465640D0000000035
:1049300038B5002504468DF800502A4643216846C4
:1049400000F0B0FAD8B39DF80000002200022080E9
:104950004421684600F0A6FA88B320889DF800102C
:104960000022084420804521684600F09BFA30B3BD
:104970009DF800000022000260804621684600F099
:1049800091FAE0B160889DF8001000220844608030
:104990004721684600F086FA88B19DF800000022A1
:1049A0000002A0804821684600F07CFA38B1A08857
:1049B0009DF800100844A08085F0010038BDFFE795
:1049C000012502A1002000F097F8F5E74552524F6B
:1049D000523A204779722064617461207265616483
:1049E000696E67206661696C65640D0070B5054687
:1049F0000024FFF74FFE48B1A81DFFF799FF28B12B
:104A000005F10C00FFF794FF00B10124204670BDB2
:104A100010B50024FFF766FF18B1FFF799FE00B14B
:104A20000124204610BD00002DE9F047044690B057
:104A3000006AFBF7F0FC07468846E069FBF7EBFCF1
:104A400005460E46A069FBF7E6FCCDE90801606962
:104A5000FBF7E1FCCDE906012069FBF7DCFCCDE9C1
:104A60000401E068FBF7D7FCCDE90201A068FBF781
:104A7000D2FCCDE900016068FBF7CDFC81468A4697
:104A80002068FBF7C8FC41EC100B0CA853EC102B72
:104A900080E8E001DDE90801CDE90A01DDE9060170
:104AA000CDE90801DDE90401CDE90601DDE90201F6
:104AB000CDE90401DDE90001CDE90201CDE9009A6B
:104AC0000349002000F018F810B0BDE8F08700009E
:104AD0008477000870470907090E002806DA00F0FD
:104AE0000F0000F1E02080F8141D704700F1E02075
:104AF00080F80014704700000FB4FF212DE9F04149
:104B0000C0B00546002648AB6846479A00F032FF21
:104B1000041E27DDFF2C25DA154905EB450701EBBF
:104B20008705A868F0B1002388465A1E194602F08E
:104B3000DDF9012816D1A8792246694600F0ECFE7D
:104B400050B158F827000168C1F3C01119B90168C4
:104B500041F080010160012600231A461946A86829
:104B600002F0BEFA40B03046BDE8F0015DF814FB3B
:104B70007400002070B504460068C168490614D46A
:104B80004FF0FF31C160FCF70DFD05464FF47A761A
:104B900007E000BFFCF706FD401BB04201D903202F
:104BA00070BD2068C0684006F4D5002070BD0000CC
:104BB0000146002002290AD201EB4100044901EB21
:104BC000800251F82030517A585C491C517270476C
:104BD0009800002030B585B0054600246846FFF7F0
:104BE00005FF38B169462846FFF7FEFD2846FFF766
:104BF0001BFF012405B0204630BD000070B5002425
:104C0000042811D281B1094A52F8305065B102EB43
:104C1000C0004068012807D100233222284602F054
:104C200065F9012800D10124204670BDB0000020A4
:104C300010B50024042810D279B1094A52F8303056
:104C40005BB102EBC0004068012806D10022184683
:104C500002F054FB012800D10124204610BD0000C1
:104C6000B000002070B586B016460C4605460A22F4
:104C700006A102A8FBF736FBCDE900462B4602AAA7
:104C800005A10020FFF738FF06B070BD5453545FF4
:104C90004552524F520000002573094552524F525F
:104CA00020696E202573206174202564206F6620A2
:104CB00025730D00012220210148FCF73FBC0000B4
:104CC0000004004870B50146002003291ED2104898
:104CD00001EB410100EB81040D4DA079183D00EB83
:104CE000400005EB8000012201894068FCF726FCAA
:104CF0000A2001F053FFA079002200EB400005EBF1
:104D0000800001894068FCF719FC012070BD00009B
:104D1000E800002010B50020FEF762FCBDE810405E
:104D20000020FEF773BC704770B50C4601460020AA
:104D3000022C18D2032916D2012C15D001EB410206
:104D40000C4901EB8205A97901290CD1094804EB32
:104D50004401183800EB8100002201894068FCF70B
:104D6000EDFBAC71012070BDBDE870400846FBF75B
:104D700087BE0000E800002073B50024042811D28B
:104D8000094951F830506DB101EBC000406801286D
:104D900008D10023322201A9284602F0A1F90128F6
:104DA00000D1012420467CBDB000002073B5002452
:104DB000042811D2094951F830506DB101EBC000FF
:104DC0004068012808D1002301A91A46284602F0AC
:104DD00037FA012800D1012420467CBDB000002014
:104DE00038B50024042817D2022915D20B4B53F8EA
:104DF00030508DB103EBC000406802280CD18DF813
:104E000000108DF80120002369461A46284602F05A
:104E100017FA012800D10124204638BDB000002037
:104E2000074A00EB400152F82100436823F0400399
:104E3000436052F82100016821F040010160704791
:104E4000E8000020074A00EB400152F82100036807
:104E500043F04003036052F82100416841F04001F3
:104E600041607047E8000020F8B500240D46064672
:104E70008DF80040032813D295B11146304600F05A
:104E80006BF868B16946304600F054F800213046AE
:104E900000F062F82946304600F04CF800B10124D9
:104EA0002046F8BD2DE9F04700271646824641F01E
:104EB0008009022A39D21E4C06EB460504F118017E
:104EC00014F8250000EB400001EB8000806860B31F
:104ED000002388465A1E194602F008F8012824D1FA
:104EE00014F82500FFF7AEFF14F825003146FFF750
:104EF0001BFF38B114F825004A465146FFF7B4FFAE
:104F000000B101270020FBF7BBFD14F82500FFF7D7
:104F100087FF14F82500002300EB400108EB810017
:104F20001A468068194602F0DBF83846BDE8F0877B
:104F3000D000002010B50024032809D2054A00EB58
:104F4000400002EB80000079FFF758FE00B1012419
:104F5000204610BDE800002070B50024032813D2BD
:104F60000A4D00EB400605EB86004079FFF704FF91
:104F700050B155F826004168C1F3C01119B9416814
:104F800041F0800141600124204670BDE80000200E
:104F90002DE9FC4100240E46074615468DF80040D9
:104FA0008DF80440032824D211463846FFF7D4FF79
:104FB000F8B169463846FFF7BDFF31463846FFF77E
:104FC000CBFF69463846FFF7B5FF3846FFF77AFE54
:104FD00045F0800201A93846FFF746FF48B19DF829
:104FE0000400B04201D1012403E003A10020FFF737
:104FF00083FD2046BDE8FC814552524F525B535021
:10500000495D3A205772697474656E2076616C75DB
:1050100065206D69736D6174636820646574656390
:105020007465640D000000002DE9F0470027164666
:10503000824601F07F09022A39D21E4C06EB460552
:1050400004F1180114F8250000EB400001EB80008A
:10505000806860B3002388465A1E194601F046FF57
:10506000012824D114F82500FFF7ECFE14F82500E0
:105070003146FFF759FE38B114F825004A4651462B
:10508000FFF786FF00B101270020FBF7F9FC14F8B9
:105090002500FFF7C5FE14F82500002300EB4001B2
:1050A00008EB81001A468068194602F019F8384664
:1050B000BDE8F087D00000208AB013A10020FFF7E0
:1050C0001BFD08B9FFF7F6FDFFF7A2FC18B916A102
:1050D0000020FFF711FD1CA10020FFF70DFD4FF48C
:1050E000FA74204601F05AFD6846FFF773FD03A9E4
:1050F000DDEC031A91EC030A06A991EC033AFEF7E2
:10510000B3FF01F065F9ECE753657269616C2063E8
:105110006F6D6D756E69636174696F6E2069732060
:105120006F6E6C696E650D004D505539323530200B
:10513000696E697469616C697A6174696F6E206601
:1051400061696C65640D000044657669636520697A
:105150006E697469616C697A6174696F6E20636FDE
:105160006D706C6574650D0010B5502080F311886A
:10517000BFF34F8FBFF36F8F02F07EF918B1044970
:105180004FF080500860002080F3118810BD0000AF
:1051900004ED00E010B59CB028216846FBF797F8B5
:1051A000142117A8FBF793F834210AA8FBF78FF80E
:1051B0000B204FF48031CDE9000101201022029034
:1051C0000224CDE90402CDE906044FF4E010CDE954
:1051D00008106846FDF792F90F20CDE91704002466
:1051E0004FF48060CDE91940022117A81B94FCF709
:1051F000B5FF07480A900C944FF4007011940B907F
:105200000E9416940AA8FCF7D5FD1CB010BD000042
:10521000250003001448016841F47001016013483F
:10522000016841F0010101604168114A114041608B
:105230000168104A11400160016821F48021016079
:10524000416821F4FE014160C16A21F00F01C16291
:10525000016B094A11400163002181600249C003CA
:10526000803908607047000088ED00E000100240BF
:105270000CC07FF8FFFFF6FECCFC00FF0148FDF7F5
:10528000FEBF00003C070020F0B502681E4B1F4C1B
:105290001F4D4FF0804E984205D0704503D0A0427C
:1052A00001D0A84203D122F070064A683243194E59
:1052B000194FDFF868C098420BD0704509D0A04262
:1052C00007D0A84205D0B04203D0B84201D0604513
:1052D00003D122F44074CA6822434C6922F0800250
:1052E000224302608A68C2620A688262984205D0DC
:1052F000B04203D0B84201D0604501D109690163D1
:1053000001214161F0BD0000002C0140000400407B
:1053100000080040004001400044014000480140B6
:1053200070B50446406AFF2804D940F6A2016BA07C
:1053300000F0ECFF94F82400C00710D0A06A38B148
:10534000B0F5003F04D040F6A70164A000F0DEFFF6
:1053500020684168A26A21F400311143416094F849
:105360002400800710D5E06A38B1B0F5803F04D042
:1053700040F6AE0159A000F0C9FF20684168E26A1A
:1053800021F480311143416094F82400400710D586
:10539000206B38B1B0F5802F04D040F6B5014FA096
:1053A00000F0B4FF20684168226B21F48021114392
:1053B000416094F82400000710D5606B38B1B0F557
:1053C000004F04D040F6BC0144A000F09FFF2068CD
:1053D0004168626B21F400411143416094F824005C
:1053E000C00610D5A06B38B1B0F5805F04D040F690
:1053F000C3013AA000F08AFF20688168A26B21F403
:1054000080511143816094F82400800610D5E06B30
:1054100038B1B0F5005F04D040F6CA012FA000F00B
:1054200075FF20688168E26B21F4005111438160AF
:1054300094F8240040063AD53749206888420AD0BB
:105440003649884207D03649884204D040F6D10117
:1054500022A000F05BFF206C4FF4801530B1A84211
:1054600004D040F6D2011DA000F050FF2068416832
:10547000226C21F4801111434160206CA84216D1A6
:10548000606C68B1B0F5001F0AD0B0F5800F07D08E
:10549000B0F5C00F04D040F6D70110A000F036FFE1
:1054A00020684168626C21F4C0011143416094F8A6
:1054B0002400000610D5A06C38B1B0F5002F04D040
:1054C00040F6DF0105A000F021FF20684168A26CD2
:1054D00021F400211143416070BD00002E2E2F44A5
:1054E0007269766572732F53544D33324633787830
:1054F0005F48414C5F4472697665722F5372632F27
:1055000073746D3332663378785F68616C5F756190
:1055100072742E6300000000003801400044004017
:1055200000480040F8B500260446C666FCF73AF885
:105530000546206800686FF07E47000708D52B46B7
:1055400000224FF400112046009700F083F960B963
:105550002068006840070AD52B4600224FF48001DE
:105560002046009700F076F908B10320F8BD20200E
:1055700084F8690084F86A0084F868600020F8BD47
:105580002DE9F0410446002640689A491025374627
:10559000884204D340F6390197A000F0B7FEA06816
:1055A0004FF4805830B1404504D040F63A0192A003
:1055B00000F0ACFEE06840450BD050B1B0F5405F64
:1055C00007D0B0F5005F04D040F63B018AA000F0A0
:1055D0009DFE206950B1B0F5806F07D0B0F5C06F67
:1055E00004D040F63C0184A000F090FE606930F0E9
:1055F0000C0100D120B940F63D017FA000F086FEED
:10560000A06968B1B0F5807F0AD0B0F5007F07D0FF
:10561000B0F5407F04D040F63E0177A000F076FE62
:10562000206A38B1B0F5006F04D040F63F0172A097
:1056300000F06CFEE0694FF4004830B1404504D002
:105640004FF404616CA000F061FE2169A068E2697A
:10565000084361691143084321680A6849F20C63F1
:105660009A4302430A6020684168E26821F440518D
:1056700011434160216AA069084321688A6822F4C5
:10568000306202438A606B4B20686B494FF4803272
:1056900098420CD1096B11F0030106D001294DD0BD
:1056A00002294DD003294CD146E0012549E0634B46
:1056B00098420CD1096B11F440313BD091423DD05E
:1056C000B1F5003F3CD0B1F5403F3AD134E05C4BFE
:1056D00098420DD1096B11F440212BD0B1F5802FE8
:1056E0002CD0B1F5002F2BD0B1F5402F29D123E0DC
:1056F000544B98420DD1096B11F440111AD0B1F5F9
:10570000801F1BD0B1F5001F1AD0B1F5401F18D172
:1057100012E04D4B984214D1096B11F4400109D0AD
:10572000B1F5800F0AD0B1F5000F09D0B1F5400FE7
:1057300007D101E0002504E0022502E0042500E095
:105740000825E369434526D1092D1DD2DFE805F080
:105750000508121C151C1C1C1800FCF76BFE01E050
:10576000FCF780FE4100606801EB5001B1FBF0F0F6
:1057700086B20AE035496068F6E7FCF78BFEF1E790
:10578000606802EB5001F1E7012726F00F00C6F335
:10579000420108431EE0092D27D2DFE805F0050885
:1057A0000B26122626261E00FCF744FE0BE0FCF713
:1057B00059FE08E0264A616802EB5102B2FBF1F1A2
:1057C00010E0FCF767FE0146606801EB5001B1FB99
:1057D000F0F080B22168C86008E0626808EB52010E
:1057E000B1FBF2F189B2C16000E001273846BDE8A3
:1057F000F0810000415489002E2E2F447269766595
:1058000072732F53544D3332463378785F48414C8E
:105810005F4472697665722F5372632F73746D33B0
:1058200032663378785F68616C5F756172742E637D
:105830000000000000380140001002400044004019
:1058400000480040004C0040005000400024F4009C
:1058500000127A002DE9F041984617460E4604469C
:10586000069D1DE0681C1BD02DB1FBF79BFEA0EB35
:105870000800A84214D92068016821F4D0710160A1
:105880002068816821F001018160202084F869008E
:1058900084F86A00002084F868000320BDE8F081E5
:1058A0002068C06936EA000004D00020B842D9D090
:1058B0000020F3E70120F9E710B50020FDF7FAFE1C
:1058C000BDE810400020FDF7CDBE70470148FBF752
:1058D000F8B8000034010020FEE7000070B504466F
:1058E00000200D46022C10D208A0FAF707FD58B987
:1058F000084804EB440150F8212000EB8100017AB4
:105900005554017A491C0172012070BD0A2009001A
:105910000000000098000020F0B503460020022B94
:1059200008D20C4C03EB430504EB85035E68761E3E
:1059300096420BD8F0BD54F8257093F808C00E5C61
:1059400007F80C601E7A761C1E72401C9042F2D33F
:10595000F0BD00009800002070B514460D460646C4
:10596000FFF7A8F9224629463046BDE87040FFF708
:1059700079B900007CB5044600201D461646002972
:105980000BD0491ECDE90041044B6A4629463046FA
:1059900000F01AF9009A002111707CBDF76200082E
:1059A00000B52DED048BB0EE409AF0EE609A83B016
:1059B00051EC190BFAF74FFF41EC180B18EE100AD7
:1059C00018EE901A8DED008B002818BF01200843B7
:1059D00020F00040C0F17F6000F1E040C00F14D023
:1059E00019EE101A19EE900A8DED009B002918BFD0
:1059F0000121084320F00040C0F17F6000F1E04049
:105A0000C00F04BF012000F017F8B0EE480A03B041
:105A1000F0EE680ABDEC048B00BD02E008C8121F5E
:105A200008C1002AFAD170477047002001E001C187
:105A3000121F002AFBD1704701490860704700001F
:105A4000300100202DE9FF5F82B00021DDE9043044
:105A5000020DDDF840B0034318D044F61050A2F216
:105A6000FF3242431514119801281FD0A5EB0B00FB
:105A7000401C5FEA000A4FF000064E4FDFF83891F5
:105A8000B046504615D5CAF1000413E01198012420
:105A90004AA3012801D16FEA0B010298119AC0E9CB
:105AA0000031C0E9024206B0BDE8F09FCBF1000032
:105AB000DFE704460021404A491842EB0450CDE993
:105AC000001012E0E00707D032463B464046494608
:105AD000FAF71EFC8046894632463B461046194678
